{
	"contracts/2_calculator.sol": {
		"Calculator": {
			"abi": [
				{
					"inputs": [],
					"name": "Add",
					"outputs": [
						{
							"internalType": "uint256",
							"name": "",
							"type": "uint256"
						}
					],
					"stateMutability": "view",
					"type": "function"
				},
				{
					"inputs": [],
					"name": "Divide",
					"outputs": [
						{
							"internalType": "uint256",
							"name": "",
							"type": "uint256"
						}
					],
					"stateMutability": "view",
					"type": "function"
				},
				{
					"inputs": [
						{
							"internalType": "uint256",
							"name": "a",
							"type": "uint256"
						},
						{
							"internalType": "uint256",
							"name": "b",
							"type": "uint256"
						}
					],
					"name": "EnterNumbers",
					"outputs": [],
					"stateMutability": "nonpayable",
					"type": "function"
				},
				{
					"inputs": [],
					"name": "Multiply",
					"outputs": [
						{
							"internalType": "uint256",
							"name": "",
							"type": "uint256"
						}
					],
					"stateMutability": "view",
					"type": "function"
				},
				{
					"inputs": [],
					"name": "Remainder",
					"outputs": [
						{
							"internalType": "uint256",
							"name": "",
							"type": "uint256"
						}
					],
					"stateMutability": "view",
					"type": "function"
				},
				{
					"inputs": [],
					"name": "Subtract",
					"outputs": [
						{
							"internalType": "uint256",
							"name": "",
							"type": "uint256"
						}
					],
					"stateMutability": "view",
					"type": "function"
				},
				{
					"inputs": [],
					"name": "n1",
					"outputs": [
						{
							"internalType": "uint256",
							"name": "",
							"type": "uint256"
						}
					],
					"stateMutability": "view",
					"type": "function"
				},
				{
					"inputs": [],
					"name": "n2",
					"outputs": [
						{
							"internalType": "uint256",
							"name": "",
							"type": "uint256"
						}
					],
					"stateMutability": "view",
					"type": "function"
				}
			],
			"devdoc": {
				"kind": "dev",
				"methods": {},
				"version": 1
			},
			"evm": {
				"assembly": "    /* \"contracts/2_calculator.sol\":58:648  contract Calculator {... */\n  mstore(0x40, 0x80)\n  callvalue\n  dup1\n  iszero\n  tag_1\n  jumpi\n  0x00\n  dup1\n  revert\ntag_1:\n  pop\n  dataSize(sub_0)\n  dup1\n  dataOffset(sub_0)\n  0x00\n  codecopy\n  0x00\n  return\nstop\n\nsub_0: assembly {\n        /* \"contracts/2_calculator.sol\":58:648  contract Calculator {... */\n      mstore(0x40, 0x80)\n      callvalue\n      dup1\n      iszero\n      tag_1\n      jumpi\n      0x00\n      dup1\n      revert\n    tag_1:\n      pop\n      jumpi(tag_2, lt(calldatasize, 0x04))\n      shr(0xe0, calldataload(0x00))\n      dup1\n      0x58a18a08\n      gt\n      tag_11\n      jumpi\n      dup1\n      0x58a18a08\n      eq\n      tag_7\n      jumpi\n      dup1\n      0x67e06858\n      eq\n      tag_8\n      jumpi\n      dup1\n      0x72b38ffc\n      eq\n      tag_9\n      jumpi\n      dup1\n      0xa4f7a630\n      eq\n      tag_10\n      jumpi\n      jump(tag_2)\n    tag_11:\n      dup1\n      0x36fe1f25\n      eq\n      tag_3\n      jumpi\n      dup1\n      0x4799e6d8\n      eq\n      tag_4\n      jumpi\n      dup1\n      0x4aaa831d\n      eq\n      tag_5\n      jumpi\n      dup1\n      0x4ef6379c\n      eq\n      tag_6\n      jumpi\n    tag_2:\n      0x00\n      dup1\n      revert\n        /* \"contracts/2_calculator.sol\":84:101  uint256 public n1 */\n    tag_3:\n      tag_12\n      tag_13\n      jump\t// in\n    tag_12:\n      mload(0x40)\n      tag_14\n      swap2\n      swap1\n      tag_15\n      jump\t// in\n    tag_14:\n      mload(0x40)\n      dup1\n      swap2\n      sub\n      swap1\n      return\n        /* \"contracts/2_calculator.sol\":395:475  function Multiply() public view returns(uint256) {... */\n    tag_4:\n      tag_16\n      tag_17\n      jump\t// in\n    tag_16:\n      mload(0x40)\n      tag_18\n      swap2\n      swap1\n      tag_15\n      jump\t// in\n    tag_18:\n      mload(0x40)\n      dup1\n      swap2\n      sub\n      swap1\n      return\n        /* \"contracts/2_calculator.sol\":108:125  uint256 public n2 */\n    tag_5:\n      tag_19\n      tag_20\n      jump\t// in\n    tag_19:\n      mload(0x40)\n      tag_21\n      swap2\n      swap1\n      tag_15\n      jump\t// in\n    tag_21:\n      mload(0x40)\n      dup1\n      swap2\n      sub\n      swap1\n      return\n        /* \"contracts/2_calculator.sol\":132:222  function EnterNumbers(uint256 a, uint256 b) public {... */\n    tag_6:\n      tag_22\n      0x04\n      dup1\n      calldatasize\n      sub\n      dup2\n      add\n      swap1\n      tag_23\n      swap2\n      swap1\n      tag_24\n      jump\t// in\n    tag_23:\n      tag_25\n      jump\t// in\n    tag_22:\n      stop\n        /* \"contracts/2_calculator.sol\":565:646  function Remainder() public view returns(uint256) {... */\n    tag_7:\n      tag_26\n      tag_27\n      jump\t// in\n    tag_26:\n      mload(0x40)\n      tag_28\n      swap2\n      swap1\n      tag_15\n      jump\t// in\n    tag_28:\n      mload(0x40)\n      dup1\n      swap2\n      sub\n      swap1\n      return\n        /* \"contracts/2_calculator.sol\":228:303  function Add() public view returns(uint256) {... */\n    tag_8:\n      tag_29\n      tag_30\n      jump\t// in\n    tag_29:\n      mload(0x40)\n      tag_31\n      swap2\n      swap1\n      tag_15\n      jump\t// in\n    tag_31:\n      mload(0x40)\n      dup1\n      swap2\n      sub\n      swap1\n      return\n        /* \"contracts/2_calculator.sol\":481:559  function Divide() public view returns(uint256) {... */\n    tag_9:\n      tag_32\n      tag_33\n      jump\t// in\n    tag_32:\n      mload(0x40)\n      tag_34\n      swap2\n      swap1\n      tag_15\n      jump\t// in\n    tag_34:\n      mload(0x40)\n      dup1\n      swap2\n      sub\n      swap1\n      return\n        /* \"contracts/2_calculator.sol\":309:389  function Subtract() public view returns(uint256) {... */\n    tag_10:\n      tag_35\n      tag_36\n      jump\t// in\n    tag_35:\n      mload(0x40)\n      tag_37\n      swap2\n      swap1\n      tag_15\n      jump\t// in\n    tag_37:\n      mload(0x40)\n      dup1\n      swap2\n      sub\n      swap1\n      return\n        /* \"contracts/2_calculator.sol\":84:101  uint256 public n1 */\n    tag_13:\n      sload(0x00)\n      dup2\n      jump\t// out\n        /* \"contracts/2_calculator.sol\":395:475  function Multiply() public view returns(uint256) {... */\n    tag_17:\n        /* \"contracts/2_calculator.sol\":435:442  uint256 */\n      0x00\n        /* \"contracts/2_calculator.sol\":466:468  n2 */\n      sload(0x01)\n        /* \"contracts/2_calculator.sol\":461:463  n1 */\n      sload(0x00)\n        /* \"contracts/2_calculator.sol\":461:468  n1 * n2 */\n      tag_39\n      swap2\n      swap1\n      tag_40\n      jump\t// in\n    tag_39:\n        /* \"contracts/2_calculator.sol\":454:468  return n1 * n2 */\n      swap1\n      pop\n        /* \"contracts/2_calculator.sol\":395:475  function Multiply() public view returns(uint256) {... */\n      swap1\n      jump\t// out\n        /* \"contracts/2_calculator.sol\":108:125  uint256 public n2 */\n    tag_20:\n      sload(0x01)\n      dup2\n      jump\t// out\n        /* \"contracts/2_calculator.sol\":132:222  function EnterNumbers(uint256 a, uint256 b) public {... */\n    tag_25:\n        /* \"contracts/2_calculator.sol\":198:199  a */\n      dup2\n        /* \"contracts/2_calculator.sol\":193:195  n1 */\n      0x00\n        /* \"contracts/2_calculator.sol\":193:199  n1 = a */\n      dup2\n      swap1\n      sstore\n      pop\n        /* \"contracts/2_calculator.sol\":214:215  b */\n      dup1\n        /* \"contracts/2_calculator.sol\":209:211  n2 */\n      0x01\n        /* \"contracts/2_calculator.sol\":209:215  n2 = b */\n      dup2\n      swap1\n      sstore\n      pop\n        /* \"contracts/2_calculator.sol\":132:222  function EnterNumbers(uint256 a, uint256 b) public {... */\n      pop\n      pop\n      jump\t// out\n        /* \"contracts/2_calculator.sol\":565:646  function Remainder() public view returns(uint256) {... */\n    tag_27:\n        /* \"contracts/2_calculator.sol\":606:613  uint256 */\n      0x00\n        /* \"contracts/2_calculator.sol\":637:639  n2 */\n      sload(0x01)\n        /* \"contracts/2_calculator.sol\":632:634  n1 */\n      sload(0x00)\n        /* \"contracts/2_calculator.sol\":632:639  n1 % n2 */\n      tag_43\n      swap2\n      swap1\n      tag_44\n      jump\t// in\n    tag_43:\n        /* \"contracts/2_calculator.sol\":625:639  return n1 % n2 */\n      swap1\n      pop\n        /* \"contracts/2_calculator.sol\":565:646  function Remainder() public view returns(uint256) {... */\n      swap1\n      jump\t// out\n        /* \"contracts/2_calculator.sol\":228:303  function Add() public view returns(uint256) {... */\n    tag_30:\n        /* \"contracts/2_calculator.sol\":263:270  uint256 */\n      0x00\n        /* \"contracts/2_calculator.sol\":294:296  n2 */\n      sload(0x01)\n        /* \"contracts/2_calculator.sol\":289:291  n1 */\n      sload(0x00)\n        /* \"contracts/2_calculator.sol\":289:296  n1 + n2 */\n      tag_46\n      swap2\n      swap1\n      tag_47\n      jump\t// in\n    tag_46:\n        /* \"contracts/2_calculator.sol\":282:296  return n1 + n2 */\n      swap1\n      pop\n        /* \"contracts/2_calculator.sol\":228:303  function Add() public view returns(uint256) {... */\n      swap1\n      jump\t// out\n        /* \"contracts/2_calculator.sol\":481:559  function Divide() public view returns(uint256) {... */\n    tag_33:\n        /* \"contracts/2_calculator.sol\":519:526  uint256 */\n      0x00\n        /* \"contracts/2_calculator.sol\":550:552  n2 */\n      sload(0x01)\n        /* \"contracts/2_calculator.sol\":545:547  n1 */\n      sload(0x00)\n        /* \"contracts/2_calculator.sol\":545:552  n1 / n2 */\n      tag_49\n      swap2\n      swap1\n      tag_50\n      jump\t// in\n    tag_49:\n        /* \"contracts/2_calculator.sol\":538:552  return n1 / n2 */\n      swap1\n      pop\n        /* \"contracts/2_calculator.sol\":481:559  function Divide() public view returns(uint256) {... */\n      swap1\n      jump\t// out\n        /* \"contracts/2_calculator.sol\":309:389  function Subtract() public view returns(uint256) {... */\n    tag_36:\n        /* \"contracts/2_calculator.sol\":349:356  uint256 */\n      0x00\n        /* \"contracts/2_calculator.sol\":380:382  n2 */\n      sload(0x01)\n        /* \"contracts/2_calculator.sol\":375:377  n1 */\n      sload(0x00)\n        /* \"contracts/2_calculator.sol\":375:382  n1 - n2 */\n      tag_52\n      swap2\n      swap1\n      tag_53\n      jump\t// in\n    tag_52:\n        /* \"contracts/2_calculator.sol\":368:382  return n1 - n2 */\n      swap1\n      pop\n        /* \"contracts/2_calculator.sol\":309:389  function Subtract() public view returns(uint256) {... */\n      swap1\n      jump\t// out\n        /* \"#utility.yul\":7:84   */\n    tag_54:\n        /* \"#utility.yul\":44:51   */\n      0x00\n        /* \"#utility.yul\":73:78   */\n      dup2\n        /* \"#utility.yul\":62:78   */\n      swap1\n      pop\n        /* \"#utility.yul\":7:84   */\n      swap2\n      swap1\n      pop\n      jump\t// out\n        /* \"#utility.yul\":90:208   */\n    tag_55:\n        /* \"#utility.yul\":177:201   */\n      tag_66\n        /* \"#utility.yul\":195:200   */\n      dup2\n        /* \"#utility.yul\":177:201   */\n      tag_54\n      jump\t// in\n    tag_66:\n        /* \"#utility.yul\":172:175   */\n      dup3\n        /* \"#utility.yul\":165:202   */\n      mstore\n        /* \"#utility.yul\":90:208   */\n      pop\n      pop\n      jump\t// out\n        /* \"#utility.yul\":214:436   */\n    tag_15:\n        /* \"#utility.yul\":307:311   */\n      0x00\n        /* \"#utility.yul\":345:347   */\n      0x20\n        /* \"#utility.yul\":334:343   */\n      dup3\n        /* \"#utility.yul\":330:348   */\n      add\n        /* \"#utility.yul\":322:348   */\n      swap1\n      pop\n        /* \"#utility.yul\":358:429   */\n      tag_68\n        /* \"#utility.yul\":426:427   */\n      0x00\n        /* \"#utility.yul\":415:424   */\n      dup4\n        /* \"#utility.yul\":411:428   */\n      add\n        /* \"#utility.yul\":402:408   */\n      dup5\n        /* \"#utility.yul\":358:429   */\n      tag_55\n      jump\t// in\n    tag_68:\n        /* \"#utility.yul\":214:436   */\n      swap3\n      swap2\n      pop\n      pop\n      jump\t// out\n        /* \"#utility.yul\":523:640   */\n    tag_57:\n        /* \"#utility.yul\":632:633   */\n      0x00\n        /* \"#utility.yul\":629:630   */\n      dup1\n        /* \"#utility.yul\":622:634   */\n      revert\n        /* \"#utility.yul\":769:891   */\n    tag_59:\n        /* \"#utility.yul\":842:866   */\n      tag_73\n        /* \"#utility.yul\":860:865   */\n      dup2\n        /* \"#utility.yul\":842:866   */\n      tag_54\n      jump\t// in\n    tag_73:\n        /* \"#utility.yul\":835:840   */\n      dup2\n        /* \"#utility.yul\":832:867   */\n      eq\n        /* \"#utility.yul\":822:885   */\n      tag_74\n      jumpi\n        /* \"#utility.yul\":881:882   */\n      0x00\n        /* \"#utility.yul\":878:879   */\n      dup1\n        /* \"#utility.yul\":871:883   */\n      revert\n        /* \"#utility.yul\":822:885   */\n    tag_74:\n        /* \"#utility.yul\":769:891   */\n      pop\n      jump\t// out\n        /* \"#utility.yul\":897:1036   */\n    tag_60:\n        /* \"#utility.yul\":943:948   */\n      0x00\n        /* \"#utility.yul\":981:987   */\n      dup2\n        /* \"#utility.yul\":968:988   */\n      calldataload\n        /* \"#utility.yul\":959:988   */\n      swap1\n      pop\n        /* \"#utility.yul\":997:1030   */\n      tag_76\n        /* \"#utility.yul\":1024:1029   */\n      dup2\n        /* \"#utility.yul\":997:1030   */\n      tag_59\n      jump\t// in\n    tag_76:\n        /* \"#utility.yul\":897:1036   */\n      swap3\n      swap2\n      pop\n      pop\n      jump\t// out\n        /* \"#utility.yul\":1042:1516   */\n    tag_24:\n        /* \"#utility.yul\":1110:1116   */\n      0x00\n        /* \"#utility.yul\":1118:1124   */\n      dup1\n        /* \"#utility.yul\":1167:1169   */\n      0x40\n        /* \"#utility.yul\":1155:1164   */\n      dup4\n        /* \"#utility.yul\":1146:1153   */\n      dup6\n        /* \"#utility.yul\":1142:1165   */\n      sub\n        /* \"#utility.yul\":1138:1170   */\n      slt\n        /* \"#utility.yul\":1135:1254   */\n      iszero\n      tag_78\n      jumpi\n        /* \"#utility.yul\":1173:1252   */\n      tag_79\n      tag_57\n      jump\t// in\n    tag_79:\n        /* \"#utility.yul\":1135:1254   */\n    tag_78:\n        /* \"#utility.yul\":1293:1294   */\n      0x00\n        /* \"#utility.yul\":1318:1371   */\n      tag_80\n        /* \"#utility.yul\":1363:1370   */\n      dup6\n        /* \"#utility.yul\":1354:1360   */\n      dup3\n        /* \"#utility.yul\":1343:1352   */\n      dup7\n        /* \"#utility.yul\":1339:1361   */\n      add\n        /* \"#utility.yul\":1318:1371   */\n      tag_60\n      jump\t// in\n    tag_80:\n        /* \"#utility.yul\":1308:1371   */\n      swap3\n      pop\n        /* \"#utility.yul\":1264:1381   */\n      pop\n        /* \"#utility.yul\":1420:1422   */\n      0x20\n        /* \"#utility.yul\":1446:1499   */\n      tag_81\n        /* \"#utility.yul\":1491:1498   */\n      dup6\n        /* \"#utility.yul\":1482:1488   */\n      dup3\n        /* \"#utility.yul\":1471:1480   */\n      dup7\n        /* \"#utility.yul\":1467:1489   */\n      add\n        /* \"#utility.yul\":1446:1499   */\n      tag_60\n      jump\t// in\n    tag_81:\n        /* \"#utility.yul\":1436:1499   */\n      swap2\n      pop\n        /* \"#utility.yul\":1391:1509   */\n      pop\n        /* \"#utility.yul\":1042:1516   */\n      swap3\n      pop\n      swap3\n      swap1\n      pop\n      jump\t// out\n        /* \"#utility.yul\":1522:1702   */\n    tag_61:\n        /* \"#utility.yul\":1570:1647   */\n      0x4e487b7100000000000000000000000000000000000000000000000000000000\n        /* \"#utility.yul\":1567:1568   */\n      0x00\n        /* \"#utility.yul\":1560:1648   */\n      mstore\n        /* \"#utility.yul\":1667:1671   */\n      0x11\n        /* \"#utility.yul\":1664:1665   */\n      0x04\n        /* \"#utility.yul\":1657:1672   */\n      mstore\n        /* \"#utility.yul\":1691:1695   */\n      0x24\n        /* \"#utility.yul\":1688:1689   */\n      0x00\n        /* \"#utility.yul\":1681:1696   */\n      revert\n        /* \"#utility.yul\":1708:2118   */\n    tag_40:\n        /* \"#utility.yul\":1748:1755   */\n      0x00\n        /* \"#utility.yul\":1771:1791   */\n      tag_84\n        /* \"#utility.yul\":1789:1790   */\n      dup3\n        /* \"#utility.yul\":1771:1791   */\n      tag_54\n      jump\t// in\n    tag_84:\n        /* \"#utility.yul\":1766:1791   */\n      swap2\n      pop\n        /* \"#utility.yul\":1805:1825   */\n      tag_85\n        /* \"#utility.yul\":1823:1824   */\n      dup4\n        /* \"#utility.yul\":1805:1825   */\n      tag_54\n      jump\t// in\n    tag_85:\n        /* \"#utility.yul\":1800:1825   */\n      swap3\n      pop\n        /* \"#utility.yul\":1860:1861   */\n      dup3\n        /* \"#utility.yul\":1857:1858   */\n      dup3\n        /* \"#utility.yul\":1853:1862   */\n      mul\n        /* \"#utility.yul\":1882:1912   */\n      tag_86\n        /* \"#utility.yul\":1900:1911   */\n      dup2\n        /* \"#utility.yul\":1882:1912   */\n      tag_54\n      jump\t// in\n    tag_86:\n        /* \"#utility.yul\":1871:1912   */\n      swap2\n      pop\n        /* \"#utility.yul\":2061:2062   */\n      dup3\n        /* \"#utility.yul\":2052:2059   */\n      dup3\n        /* \"#utility.yul\":2048:2063   */\n      div\n        /* \"#utility.yul\":2045:2046   */\n      dup5\n        /* \"#utility.yul\":2042:2064   */\n      eq\n        /* \"#utility.yul\":2022:2023   */\n      dup4\n        /* \"#utility.yul\":2015:2024   */\n      iszero\n        /* \"#utility.yul\":1995:2078   */\n      or\n        /* \"#utility.yul\":1972:2111   */\n      tag_87\n      jumpi\n        /* \"#utility.yul\":2091:2109   */\n      tag_88\n      tag_61\n      jump\t// in\n    tag_88:\n        /* \"#utility.yul\":1972:2111   */\n    tag_87:\n        /* \"#utility.yul\":1756:2118   */\n      pop\n        /* \"#utility.yul\":1708:2118   */\n      swap3\n      swap2\n      pop\n      pop\n      jump\t// out\n        /* \"#utility.yul\":2124:2304   */\n    tag_62:\n        /* \"#utility.yul\":2172:2249   */\n      0x4e487b7100000000000000000000000000000000000000000000000000000000\n        /* \"#utility.yul\":2169:2170   */\n      0x00\n        /* \"#utility.yul\":2162:2250   */\n      mstore\n        /* \"#utility.yul\":2269:2273   */\n      0x12\n        /* \"#utility.yul\":2266:2267   */\n      0x04\n        /* \"#utility.yul\":2259:2274   */\n      mstore\n        /* \"#utility.yul\":2293:2297   */\n      0x24\n        /* \"#utility.yul\":2290:2291   */\n      0x00\n        /* \"#utility.yul\":2283:2298   */\n      revert\n        /* \"#utility.yul\":2310:2486   */\n    tag_44:\n        /* \"#utility.yul\":2342:2343   */\n      0x00\n        /* \"#utility.yul\":2359:2379   */\n      tag_91\n        /* \"#utility.yul\":2377:2378   */\n      dup3\n        /* \"#utility.yul\":2359:2379   */\n      tag_54\n      jump\t// in\n    tag_91:\n        /* \"#utility.yul\":2354:2379   */\n      swap2\n      pop\n        /* \"#utility.yul\":2393:2413   */\n      tag_92\n        /* \"#utility.yul\":2411:2412   */\n      dup4\n        /* \"#utility.yul\":2393:2413   */\n      tag_54\n      jump\t// in\n    tag_92:\n        /* \"#utility.yul\":2388:2413   */\n      swap3\n      pop\n        /* \"#utility.yul\":2432:2433   */\n      dup3\n        /* \"#utility.yul\":2422:2457   */\n      tag_93\n      jumpi\n        /* \"#utility.yul\":2437:2455   */\n      tag_94\n      tag_62\n      jump\t// in\n    tag_94:\n        /* \"#utility.yul\":2422:2457   */\n    tag_93:\n        /* \"#utility.yul\":2478:2479   */\n      dup3\n        /* \"#utility.yul\":2475:2476   */\n      dup3\n        /* \"#utility.yul\":2471:2480   */\n      mod\n        /* \"#utility.yul\":2466:2480   */\n      swap1\n      pop\n        /* \"#utility.yul\":2310:2486   */\n      swap3\n      swap2\n      pop\n      pop\n      jump\t// out\n        /* \"#utility.yul\":2492:2683   */\n    tag_47:\n        /* \"#utility.yul\":2532:2535   */\n      0x00\n        /* \"#utility.yul\":2551:2571   */\n      tag_96\n        /* \"#utility.yul\":2569:2570   */\n      dup3\n        /* \"#utility.yul\":2551:2571   */\n      tag_54\n      jump\t// in\n    tag_96:\n        /* \"#utility.yul\":2546:2571   */\n      swap2\n      pop\n        /* \"#utility.yul\":2585:2605   */\n      tag_97\n        /* \"#utility.yul\":2603:2604   */\n      dup4\n        /* \"#utility.yul\":2585:2605   */\n      tag_54\n      jump\t// in\n    tag_97:\n        /* \"#utility.yul\":2580:2605   */\n      swap3\n      pop\n        /* \"#utility.yul\":2628:2629   */\n      dup3\n        /* \"#utility.yul\":2625:2626   */\n      dup3\n        /* \"#utility.yul\":2621:2630   */\n      add\n        /* \"#utility.yul\":2614:2630   */\n      swap1\n      pop\n        /* \"#utility.yul\":2649:2652   */\n      dup1\n        /* \"#utility.yul\":2646:2647   */\n      dup3\n        /* \"#utility.yul\":2643:2653   */\n      gt\n        /* \"#utility.yul\":2640:2676   */\n      iszero\n      tag_98\n      jumpi\n        /* \"#utility.yul\":2656:2674   */\n      tag_99\n      tag_61\n      jump\t// in\n    tag_99:\n        /* \"#utility.yul\":2640:2676   */\n    tag_98:\n        /* \"#utility.yul\":2492:2683   */\n      swap3\n      swap2\n      pop\n      pop\n      jump\t// out\n        /* \"#utility.yul\":2689:2874   */\n    tag_50:\n        /* \"#utility.yul\":2729:2730   */\n      0x00\n        /* \"#utility.yul\":2746:2766   */\n      tag_101\n        /* \"#utility.yul\":2764:2765   */\n      dup3\n        /* \"#utility.yul\":2746:2766   */\n      tag_54\n      jump\t// in\n    tag_101:\n        /* \"#utility.yul\":2741:2766   */\n      swap2\n      pop\n        /* \"#utility.yul\":2780:2800   */\n      tag_102\n        /* \"#utility.yul\":2798:2799   */\n      dup4\n        /* \"#utility.yul\":2780:2800   */\n      tag_54\n      jump\t// in\n    tag_102:\n        /* \"#utility.yul\":2775:2800   */\n      swap3\n      pop\n        /* \"#utility.yul\":2819:2820   */\n      dup3\n        /* \"#utility.yul\":2809:2844   */\n      tag_103\n      jumpi\n        /* \"#utility.yul\":2824:2842   */\n      tag_104\n      tag_62\n      jump\t// in\n    tag_104:\n        /* \"#utility.yul\":2809:2844   */\n    tag_103:\n        /* \"#utility.yul\":2866:2867   */\n      dup3\n        /* \"#utility.yul\":2863:2864   */\n      dup3\n        /* \"#utility.yul\":2859:2868   */\n      div\n        /* \"#utility.yul\":2854:2868   */\n      swap1\n      pop\n        /* \"#utility.yul\":2689:2874   */\n      swap3\n      swap2\n      pop\n      pop\n      jump\t// out\n        /* \"#utility.yul\":2880:3074   */\n    tag_53:\n        /* \"#utility.yul\":2920:2924   */\n      0x00\n        /* \"#utility.yul\":2940:2960   */\n      tag_106\n        /* \"#utility.yul\":2958:2959   */\n      dup3\n        /* \"#utility.yul\":2940:2960   */\n      tag_54\n      jump\t// in\n    tag_106:\n        /* \"#utility.yul\":2935:2960   */\n      swap2\n      pop\n        /* \"#utility.yul\":2974:2994   */\n      tag_107\n        /* \"#utility.yul\":2992:2993   */\n      dup4\n        /* \"#utility.yul\":2974:2994   */\n      tag_54\n      jump\t// in\n    tag_107:\n        /* \"#utility.yul\":2969:2994   */\n      swap3\n      pop\n        /* \"#utility.yul\":3018:3019   */\n      dup3\n        /* \"#utility.yul\":3015:3016   */\n      dup3\n        /* \"#utility.yul\":3011:3020   */\n      sub\n        /* \"#utility.yul\":3003:3020   */\n      swap1\n      pop\n        /* \"#utility.yul\":3042:3043   */\n      dup2\n        /* \"#utility.yul\":3036:3040   */\n      dup2\n        /* \"#utility.yul\":3033:3044   */\n      gt\n        /* \"#utility.yul\":3030:3067   */\n      iszero\n      tag_108\n      jumpi\n        /* \"#utility.yul\":3047:3065   */\n      tag_109\n      tag_61\n      jump\t// in\n    tag_109:\n        /* \"#utility.yul\":3030:3067   */\n    tag_108:\n        /* \"#utility.yul\":2880:3074   */\n      swap3\n      swap2\n      pop\n      pop\n      jump\t// out\n\n    auxdata: 0xa2646970667358221220cdb51b6c6ebbd9c46476d67a4fde878044912ad61c67ccae2ca2fba4ebcfb1d364736f6c63430008110033\n}\n",
				"bytecode": {
					"linkReferences": {},
					"object": "608060405234801561001057600080fd5b50610451806100206000396000f3fe608060405234801561001057600080fd5b50600436106100885760003560e01c806358a18a081161005b57806358a18a081461010357806367e068581461012157806372b38ffc1461013f578063a4f7a6301461015d57610088565b806336fe1f251461008d5780634799e6d8146100ab5780634aaa831d146100c95780634ef6379c146100e7575b600080fd5b61009561017b565b6040516100a29190610225565b60405180910390f35b6100b3610181565b6040516100c09190610225565b60405180910390f35b6100d1610198565b6040516100de9190610225565b60405180910390f35b61010160048036038101906100fc9190610271565b61019e565b005b61010b6101b0565b6040516101189190610225565b60405180910390f35b6101296101c7565b6040516101369190610225565b60405180910390f35b6101476101de565b6040516101549190610225565b60405180910390f35b6101656101f5565b6040516101729190610225565b60405180910390f35b60005481565b600060015460005461019391906102e0565b905090565b60015481565b81600081905550806001819055505050565b60006001546000546101c29190610351565b905090565b60006001546000546101d99190610382565b905090565b60006001546000546101f091906103b6565b905090565b600060015460005461020791906103e7565b905090565b6000819050919050565b61021f8161020c565b82525050565b600060208201905061023a6000830184610216565b92915050565b600080fd5b61024e8161020c565b811461025957600080fd5b50565b60008135905061026b81610245565b92915050565b6000806040838503121561028857610287610240565b5b60006102968582860161025c565b92505060206102a78582860161025c565b9150509250929050565b7f4e487b7100000000000000000000000000000000000000000000000000000000600052601160045260246000fd5b60006102eb8261020c565b91506102f68361020c565b92508282026103048161020c565b9150828204841483151761031b5761031a6102b1565b5b5092915050565b7f4e487b7100000000000000000000000000000000000000000000000000000000600052601260045260246000fd5b600061035c8261020c565b91506103678361020c565b92508261037757610376610322565b5b828206905092915050565b600061038d8261020c565b91506103988361020c565b92508282019050808211156103b0576103af6102b1565b5b92915050565b60006103c18261020c565b91506103cc8361020c565b9250826103dc576103db610322565b5b828204905092915050565b60006103f28261020c565b91506103fd8361020c565b9250828203905081811115610415576104146102b1565b5b9291505056fea2646970667358221220cdb51b6c6ebbd9c46476d67a4fde878044912ad61c67ccae2ca2fba4ebcfb1d364736f6c63430008110033",
					"opcodes": "PUSH1 0x80 PUSH1 0x40 MSTORE CALLVALUE DUP1 ISZERO PUSH2 0x10 JUMPI PUSH1 0x0 DUP1 REVERT JUMPDEST POP PUSH2 0x451 DUP1 PUSH2 0x20 PUSH1 0x0 CODECOPY PUSH1 0x0 RETURN INVALID PUSH1 0x80 PUSH1 0x40 MSTORE CALLVALUE DUP1 ISZERO PUSH2 0x10 JUMPI PUSH1 0x0 DUP1 REVERT JUMPDEST POP PUSH1 0x4 CALLDATASIZE LT PUSH2 0x88 JUMPI PUSH1 0x0 CALLDATALOAD PUSH1 0xE0 SHR DUP1 PUSH4 0x58A18A08 GT PUSH2 0x5B JUMPI DUP1 PUSH4 0x58A18A08 EQ PUSH2 0x103 JUMPI DUP1 PUSH4 0x67E06858 EQ PUSH2 0x121 JUMPI DUP1 PUSH4 0x72B38FFC EQ PUSH2 0x13F JUMPI DUP1 PUSH4 0xA4F7A630 EQ PUSH2 0x15D JUMPI PUSH2 0x88 JUMP JUMPDEST DUP1 PUSH4 0x36FE1F25 EQ PUSH2 0x8D JUMPI DUP1 PUSH4 0x4799E6D8 EQ PUSH2 0xAB JUMPI DUP1 PUSH4 0x4AAA831D EQ PUSH2 0xC9 JUMPI DUP1 PUSH4 0x4EF6379C EQ PUSH2 0xE7 JUMPI JUMPDEST PUSH1 0x0 DUP1 REVERT JUMPDEST PUSH2 0x95 PUSH2 0x17B JUMP JUMPDEST PUSH1 0x40 MLOAD PUSH2 0xA2 SWAP2 SWAP1 PUSH2 0x225 JUMP JUMPDEST PUSH1 0x40 MLOAD DUP1 SWAP2 SUB SWAP1 RETURN JUMPDEST PUSH2 0xB3 PUSH2 0x181 JUMP JUMPDEST PUSH1 0x40 MLOAD PUSH2 0xC0 SWAP2 SWAP1 PUSH2 0x225 JUMP JUMPDEST PUSH1 0x40 MLOAD DUP1 SWAP2 SUB SWAP1 RETURN JUMPDEST PUSH2 0xD1 PUSH2 0x198 JUMP JUMPDEST PUSH1 0x40 MLOAD PUSH2 0xDE SWAP2 SWAP1 PUSH2 0x225 JUMP JUMPDEST PUSH1 0x40 MLOAD DUP1 SWAP2 SUB SWAP1 RETURN JUMPDEST PUSH2 0x101 PUSH1 0x4 DUP1 CALLDATASIZE SUB DUP2 ADD SWAP1 PUSH2 0xFC SWAP2 SWAP1 PUSH2 0x271 JUMP JUMPDEST PUSH2 0x19E JUMP JUMPDEST STOP JUMPDEST PUSH2 0x10B PUSH2 0x1B0 JUMP JUMPDEST PUSH1 0x40 MLOAD PUSH2 0x118 SWAP2 SWAP1 PUSH2 0x225 JUMP JUMPDEST PUSH1 0x40 MLOAD DUP1 SWAP2 SUB SWAP1 RETURN JUMPDEST PUSH2 0x129 PUSH2 0x1C7 JUMP JUMPDEST PUSH1 0x40 MLOAD PUSH2 0x136 SWAP2 SWAP1 PUSH2 0x225 JUMP JUMPDEST PUSH1 0x40 MLOAD DUP1 SWAP2 SUB SWAP1 RETURN JUMPDEST PUSH2 0x147 PUSH2 0x1DE JUMP JUMPDEST PUSH1 0x40 MLOAD PUSH2 0x154 SWAP2 SWAP1 PUSH2 0x225 JUMP JUMPDEST PUSH1 0x40 MLOAD DUP1 SWAP2 SUB SWAP1 RETURN JUMPDEST PUSH2 0x165 PUSH2 0x1F5 JUMP JUMPDEST PUSH1 0x40 MLOAD PUSH2 0x172 SWAP2 SWAP1 PUSH2 0x225 JUMP JUMPDEST PUSH1 0x40 MLOAD DUP1 SWAP2 SUB SWAP1 RETURN JUMPDEST PUSH1 0x0 SLOAD DUP2 JUMP JUMPDEST PUSH1 0x0 PUSH1 0x1 SLOAD PUSH1 0x0 SLOAD PUSH2 0x193 SWAP2 SWAP1 PUSH2 0x2E0 JUMP JUMPDEST SWAP1 POP SWAP1 JUMP JUMPDEST PUSH1 0x1 SLOAD DUP2 JUMP JUMPDEST DUP2 PUSH1 0x0 DUP2 SWAP1 SSTORE POP DUP1 PUSH1 0x1 DUP2 SWAP1 SSTORE POP POP POP JUMP JUMPDEST PUSH1 0x0 PUSH1 0x1 SLOAD PUSH1 0x0 SLOAD PUSH2 0x1C2 SWAP2 SWAP1 PUSH2 0x351 JUMP JUMPDEST SWAP1 POP SWAP1 JUMP JUMPDEST PUSH1 0x0 PUSH1 0x1 SLOAD PUSH1 0x0 SLOAD PUSH2 0x1D9 SWAP2 SWAP1 PUSH2 0x382 JUMP JUMPDEST SWAP1 POP SWAP1 JUMP JUMPDEST PUSH1 0x0 PUSH1 0x1 SLOAD PUSH1 0x0 SLOAD PUSH2 0x1F0 SWAP2 SWAP1 PUSH2 0x3B6 JUMP JUMPDEST SWAP1 POP SWAP1 JUMP JUMPDEST PUSH1 0x0 PUSH1 0x1 SLOAD PUSH1 0x0 SLOAD PUSH2 0x207 SWAP2 SWAP1 PUSH2 0x3E7 JUMP JUMPDEST SWAP1 POP SWAP1 JUMP JUMPDEST PUSH1 0x0 DUP2 SWAP1 POP SWAP2 SWAP1 POP JUMP JUMPDEST PUSH2 0x21F DUP2 PUSH2 0x20C JUMP JUMPDEST DUP3 MSTORE POP POP JUMP JUMPDEST PUSH1 0x0 PUSH1 0x20 DUP3 ADD SWAP1 POP PUSH2 0x23A PUSH1 0x0 DUP4 ADD DUP5 PUSH2 0x216 JUMP JUMPDEST SWAP3 SWAP2 POP POP JUMP JUMPDEST PUSH1 0x0 DUP1 REVERT JUMPDEST PUSH2 0x24E DUP2 PUSH2 0x20C JUMP JUMPDEST DUP2 EQ PUSH2 0x259 JUMPI PUSH1 0x0 DUP1 REVERT JUMPDEST POP JUMP JUMPDEST PUSH1 0x0 DUP2 CALLDATALOAD SWAP1 POP PUSH2 0x26B DUP2 PUSH2 0x245 JUMP JUMPDEST SWAP3 SWAP2 POP POP JUMP JUMPDEST PUSH1 0x0 DUP1 PUSH1 0x40 DUP4 DUP6 SUB SLT ISZERO PUSH2 0x288 JUMPI PUSH2 0x287 PUSH2 0x240 JUMP JUMPDEST JUMPDEST PUSH1 0x0 PUSH2 0x296 DUP6 DUP3 DUP7 ADD PUSH2 0x25C JUMP JUMPDEST SWAP3 POP POP PUSH1 0x20 PUSH2 0x2A7 DUP6 DUP3 DUP7 ADD PUSH2 0x25C JUMP JUMPDEST SWAP2 POP POP SWAP3 POP SWAP3 SWAP1 POP JUMP JUMPDEST PUSH32 0x4E487B7100000000000000000000000000000000000000000000000000000000 PUSH1 0x0 MSTORE PUSH1 0x11 PUSH1 0x4 MSTORE PUSH1 0x24 PUSH1 0x0 REVERT JUMPDEST PUSH1 0x0 PUSH2 0x2EB DUP3 PUSH2 0x20C JUMP JUMPDEST SWAP2 POP PUSH2 0x2F6 DUP4 PUSH2 0x20C JUMP JUMPDEST SWAP3 POP DUP3 DUP3 MUL PUSH2 0x304 DUP2 PUSH2 0x20C JUMP JUMPDEST SWAP2 POP DUP3 DUP3 DIV DUP5 EQ DUP4 ISZERO OR PUSH2 0x31B JUMPI PUSH2 0x31A PUSH2 0x2B1 JUMP JUMPDEST JUMPDEST POP SWAP3 SWAP2 POP POP JUMP JUMPDEST PUSH32 0x4E487B7100000000000000000000000000000000000000000000000000000000 PUSH1 0x0 MSTORE PUSH1 0x12 PUSH1 0x4 MSTORE PUSH1 0x24 PUSH1 0x0 REVERT JUMPDEST PUSH1 0x0 PUSH2 0x35C DUP3 PUSH2 0x20C JUMP JUMPDEST SWAP2 POP PUSH2 0x367 DUP4 PUSH2 0x20C JUMP JUMPDEST SWAP3 POP DUP3 PUSH2 0x377 JUMPI PUSH2 0x376 PUSH2 0x322 JUMP JUMPDEST JUMPDEST DUP3 DUP3 MOD SWAP1 POP SWAP3 SWAP2 POP POP JUMP JUMPDEST PUSH1 0x0 PUSH2 0x38D DUP3 PUSH2 0x20C JUMP JUMPDEST SWAP2 POP PUSH2 0x398 DUP4 PUSH2 0x20C JUMP JUMPDEST SWAP3 POP DUP3 DUP3 ADD SWAP1 POP DUP1 DUP3 GT ISZERO PUSH2 0x3B0 JUMPI PUSH2 0x3AF PUSH2 0x2B1 JUMP JUMPDEST JUMPDEST SWAP3 SWAP2 POP POP JUMP JUMPDEST PUSH1 0x0 PUSH2 0x3C1 DUP3 PUSH2 0x20C JUMP JUMPDEST SWAP2 POP PUSH2 0x3CC DUP4 PUSH2 0x20C JUMP JUMPDEST SWAP3 POP DUP3 PUSH2 0x3DC JUMPI PUSH2 0x3DB PUSH2 0x322 JUMP JUMPDEST JUMPDEST DUP3 DUP3 DIV SWAP1 POP SWAP3 SWAP2 POP POP JUMP JUMPDEST PUSH1 0x0 PUSH2 0x3F2 DUP3 PUSH2 0x20C JUMP JUMPDEST SWAP2 POP PUSH2 0x3FD DUP4 PUSH2 0x20C JUMP JUMPDEST SWAP3 POP DUP3 DUP3 SUB SWAP1 POP DUP2 DUP2 GT ISZERO PUSH2 0x415 JUMPI PUSH2 0x414 PUSH2 0x2B1 JUMP JUMPDEST JUMPDEST SWAP3 SWAP2 POP POP JUMP INVALID LOG2 PUSH5 0x6970667358 0x22 SLT KECCAK256 0xCD 0xB5 SHL PUSH13 0x6EBBD9C46476D67A4FDE878044 SWAP2 0x2A 0xD6 SHR PUSH8 0xCCAE2CA2FBA4EBCF 0xB1 0xD3 PUSH5 0x736F6C6343 STOP ADDMOD GT STOP CALLER "
				},
				"gasEstimates": {
					"creation": {
						"codeDepositCost": "221000",
						"executionCost": "263",
						"totalCost": "221263"
					},
					"external": {
						"Add()": "infinite",
						"Divide()": "infinite",
						"EnterNumbers(uint256,uint256)": "infinite",
						"Multiply()": "infinite",
						"Remainder()": "infinite",
						"Subtract()": "infinite",
						"n1()": "2430",
						"n2()": "2474"
					}
				},
				"methodIdentifiers": {
					"Add()": "67e06858",
					"Divide()": "72b38ffc",
					"EnterNumbers(uint256,uint256)": "4ef6379c",
					"Multiply()": "4799e6d8",
					"Remainder()": "58a18a08",
					"Subtract()": "a4f7a630",
					"n1()": "36fe1f25",
					"n2()": "4aaa831d"
				}
			},
			"storageLayout": {
				"storage": [
					{
						"astId": 3,
						"contract": "contracts/2_calculator.sol:Calculator",
						"label": "n1",
						"offset": 0,
						"slot": "0",
						"type": "t_uint256"
					},
					{
						"astId": 5,
						"contract": "contracts/2_calculator.sol:Calculator",
						"label": "n2",
						"offset": 0,
						"slot": "1",
						"type": "t_uint256"
					}
				],
				"types": {
					"t_uint256": {
						"encoding": "inplace",
						"label": "uint256",
						"numberOfBytes": "32"
					}
				}
			},
			"userdoc": {
				"kind": "user",
				"methods": {},
				"version": 1
			}
		}
	}
}