{
	"data": {
		"bytecode": {
			"linkReferences": {},
			"object": "608060405234801561001057600080fd5b50610451806100206000396000f3fe608060405234801561001057600080fd5b50600436106100885760003560e01c806358a18a081161005b57806358a18a081461010357806367e068581461012157806372b38ffc1461013f578063a4f7a6301461015d57610088565b806336fe1f251461008d5780634799e6d8146100ab5780634aaa831d146100c95780634ef6379c146100e7575b600080fd5b61009561017b565b6040516100a29190610225565b60405180910390f35b6100b3610181565b6040516100c09190610225565b60405180910390f35b6100d1610198565b6040516100de9190610225565b60405180910390f35b61010160048036038101906100fc9190610271565b61019e565b005b61010b6101b0565b6040516101189190610225565b60405180910390f35b6101296101c7565b6040516101369190610225565b60405180910390f35b6101476101de565b6040516101549190610225565b60405180910390f35b6101656101f5565b6040516101729190610225565b60405180910390f35b60005481565b600060015460005461019391906102e0565b905090565b60015481565b81600081905550806001819055505050565b60006001546000546101c29190610351565b905090565b60006001546000546101d99190610382565b905090565b60006001546000546101f091906103b6565b905090565b600060015460005461020791906103e7565b905090565b6000819050919050565b61021f8161020c565b82525050565b600060208201905061023a6000830184610216565b92915050565b600080fd5b61024e8161020c565b811461025957600080fd5b50565b60008135905061026b81610245565b92915050565b6000806040838503121561028857610287610240565b5b60006102968582860161025c565b92505060206102a78582860161025c565b9150509250929050565b7f4e487b7100000000000000000000000000000000000000000000000000000000600052601160045260246000fd5b60006102eb8261020c565b91506102f68361020c565b92508282026103048161020c565b9150828204841483151761031b5761031a6102b1565b5b5092915050565b7f4e487b7100000000000000000000000000000000000000000000000000000000600052601260045260246000fd5b600061035c8261020c565b91506103678361020c565b92508261037757610376610322565b5b828206905092915050565b600061038d8261020c565b91506103988361020c565b92508282019050808211156103b0576103af6102b1565b5b92915050565b60006103c18261020c565b91506103cc8361020c565b9250826103dc576103db610322565b5b828204905092915050565b60006103f28261020c565b91506103fd8361020c565b9250828203905081811115610415576104146102b1565b5b9291505056fea264697066735822122040eadf69d436740a5ebdc2389a70e5792a6880e5c3f58dc2526ac08b52587d7664736f6c63430008110033",
			"opcodes": "PUSH1 0x80 PUSH1 0x40 MSTORE CALLVALUE DUP1 ISZERO PUSH2 0x10 JUMPI PUSH1 0x0 DUP1 REVERT JUMPDEST POP PUSH2 0x451 DUP1 PUSH2 0x20 PUSH1 0x0 CODECOPY PUSH1 0x0 RETURN INVALID PUSH1 0x80 PUSH1 0x40 MSTORE CALLVALUE DUP1 ISZERO PUSH2 0x10 JUMPI PUSH1 0x0 DUP1 REVERT JUMPDEST POP PUSH1 0x4 CALLDATASIZE LT PUSH2 0x88 JUMPI PUSH1 0x0 CALLDATALOAD PUSH1 0xE0 SHR DUP1 PUSH4 0x58A18A08 GT PUSH2 0x5B JUMPI DUP1 PUSH4 0x58A18A08 EQ PUSH2 0x103 JUMPI DUP1 PUSH4 0x67E06858 EQ PUSH2 0x121 JUMPI DUP1 PUSH4 0x72B38FFC EQ PUSH2 0x13F JUMPI DUP1 PUSH4 0xA4F7A630 EQ PUSH2 0x15D JUMPI PUSH2 0x88 JUMP JUMPDEST DUP1 PUSH4 0x36FE1F25 EQ PUSH2 0x8D JUMPI DUP1 PUSH4 0x4799E6D8 EQ PUSH2 0xAB JUMPI DUP1 PUSH4 0x4AAA831D EQ PUSH2 0xC9 JUMPI DUP1 PUSH4 0x4EF6379C EQ PUSH2 0xE7 JUMPI JUMPDEST PUSH1 0x0 DUP1 REVERT JUMPDEST PUSH2 0x95 PUSH2 0x17B JUMP JUMPDEST PUSH1 0x40 MLOAD PUSH2 0xA2 SWAP2 SWAP1 PUSH2 0x225 JUMP JUMPDEST PUSH1 0x40 MLOAD DUP1 SWAP2 SUB SWAP1 RETURN JUMPDEST PUSH2 0xB3 PUSH2 0x181 JUMP JUMPDEST PUSH1 0x40 MLOAD PUSH2 0xC0 SWAP2 SWAP1 PUSH2 0x225 JUMP JUMPDEST PUSH1 0x40 MLOAD DUP1 SWAP2 SUB SWAP1 RETURN JUMPDEST PUSH2 0xD1 PUSH2 0x198 JUMP JUMPDEST PUSH1 0x40 MLOAD PUSH2 0xDE SWAP2 SWAP1 PUSH2 0x225 JUMP JUMPDEST PUSH1 0x40 MLOAD DUP1 SWAP2 SUB SWAP1 RETURN JUMPDEST PUSH2 0x101 PUSH1 0x4 DUP1 CALLDATASIZE SUB DUP2 ADD SWAP1 PUSH2 0xFC SWAP2 SWAP1 PUSH2 0x271 JUMP JUMPDEST PUSH2 0x19E JUMP JUMPDEST STOP JUMPDEST PUSH2 0x10B PUSH2 0x1B0 JUMP JUMPDEST PUSH1 0x40 MLOAD PUSH2 0x118 SWAP2 SWAP1 PUSH2 0x225 JUMP JUMPDEST PUSH1 0x40 MLOAD DUP1 SWAP2 SUB SWAP1 RETURN JUMPDEST PUSH2 0x129 PUSH2 0x1C7 JUMP JUMPDEST PUSH1 0x40 MLOAD PUSH2 0x136 SWAP2 SWAP1 PUSH2 0x225 JUMP JUMPDEST PUSH1 0x40 MLOAD DUP1 SWAP2 SUB SWAP1 RETURN JUMPDEST PUSH2 0x147 PUSH2 0x1DE JUMP JUMPDEST PUSH1 0x40 MLOAD PUSH2 0x154 SWAP2 SWAP1 PUSH2 0x225 JUMP JUMPDEST PUSH1 0x40 MLOAD DUP1 SWAP2 SUB SWAP1 RETURN JUMPDEST PUSH2 0x165 PUSH2 0x1F5 JUMP JUMPDEST PUSH1 0x40 MLOAD PUSH2 0x172 SWAP2 SWAP1 PUSH2 0x225 JUMP JUMPDEST PUSH1 0x40 MLOAD DUP1 SWAP2 SUB SWAP1 RETURN JUMPDEST PUSH1 0x0 SLOAD DUP2 JUMP JUMPDEST PUSH1 0x0 PUSH1 0x1 SLOAD PUSH1 0x0 SLOAD PUSH2 0x193 SWAP2 SWAP1 PUSH2 0x2E0 JUMP JUMPDEST SWAP1 POP SWAP1 JUMP JUMPDEST PUSH1 0x1 SLOAD DUP2 JUMP JUMPDEST DUP2 PUSH1 0x0 DUP2 SWAP1 SSTORE POP DUP1 PUSH1 0x1 DUP2 SWAP1 SSTORE POP POP POP JUMP JUMPDEST PUSH1 0x0 PUSH1 0x1 SLOAD PUSH1 0x0 SLOAD PUSH2 0x1C2 SWAP2 SWAP1 PUSH2 0x351 JUMP JUMPDEST SWAP1 POP SWAP1 JUMP JUMPDEST PUSH1 0x0 PUSH1 0x1 SLOAD PUSH1 0x0 SLOAD PUSH2 0x1D9 SWAP2 SWAP1 PUSH2 0x382 JUMP JUMPDEST SWAP1 POP SWAP1 JUMP JUMPDEST PUSH1 0x0 PUSH1 0x1 SLOAD PUSH1 0x0 SLOAD PUSH2 0x1F0 SWAP2 SWAP1 PUSH2 0x3B6 JUMP JUMPDEST SWAP1 POP SWAP1 JUMP JUMPDEST PUSH1 0x0 PUSH1 0x1 SLOAD PUSH1 0x0 SLOAD PUSH2 0x207 SWAP2 SWAP1 PUSH2 0x3E7 JUMP JUMPDEST SWAP1 POP SWAP1 JUMP JUMPDEST PUSH1 0x0 DUP2 SWAP1 POP SWAP2 SWAP1 POP JUMP JUMPDEST PUSH2 0x21F DUP2 PUSH2 0x20C JUMP JUMPDEST DUP3 MSTORE POP POP JUMP JUMPDEST PUSH1 0x0 PUSH1 0x20 DUP3 ADD SWAP1 POP PUSH2 0x23A PUSH1 0x0 DUP4 ADD DUP5 PUSH2 0x216 JUMP JUMPDEST SWAP3 SWAP2 POP POP JUMP JUMPDEST PUSH1 0x0 DUP1 REVERT JUMPDEST PUSH2 0x24E DUP2 PUSH2 0x20C JUMP JUMPDEST DUP2 EQ PUSH2 0x259 JUMPI PUSH1 0x0 DUP1 REVERT JUMPDEST POP JUMP JUMPDEST PUSH1 0x0 DUP2 CALLDATALOAD SWAP1 POP PUSH2 0x26B DUP2 PUSH2 0x245 JUMP JUMPDEST SWAP3 SWAP2 POP POP JUMP JUMPDEST PUSH1 0x0 DUP1 PUSH1 0x40 DUP4 DUP6 SUB SLT ISZERO PUSH2 0x288 JUMPI PUSH2 0x287 PUSH2 0x240 JUMP JUMPDEST JUMPDEST PUSH1 0x0 PUSH2 0x296 DUP6 DUP3 DUP7 ADD PUSH2 0x25C JUMP JUMPDEST SWAP3 POP POP PUSH1 0x20 PUSH2 0x2A7 DUP6 DUP3 DUP7 ADD PUSH2 0x25C JUMP JUMPDEST SWAP2 POP POP SWAP3 POP SWAP3 SWAP1 POP JUMP JUMPDEST PUSH32 0x4E487B7100000000000000000000000000000000000000000000000000000000 PUSH1 0x0 MSTORE PUSH1 0x11 PUSH1 0x4 MSTORE PUSH1 0x24 PUSH1 0x0 REVERT JUMPDEST PUSH1 0x0 PUSH2 0x2EB DUP3 PUSH2 0x20C JUMP JUMPDEST SWAP2 POP PUSH2 0x2F6 DUP4 PUSH2 0x20C JUMP JUMPDEST SWAP3 POP DUP3 DUP3 MUL PUSH2 0x304 DUP2 PUSH2 0x20C JUMP JUMPDEST SWAP2 POP DUP3 DUP3 DIV DUP5 EQ DUP4 ISZERO OR PUSH2 0x31B JUMPI PUSH2 0x31A PUSH2 0x2B1 JUMP JUMPDEST JUMPDEST POP SWAP3 SWAP2 POP POP JUMP JUMPDEST PUSH32 0x4E487B7100000000000000000000000000000000000000000000000000000000 PUSH1 0x0 MSTORE PUSH1 0x12 PUSH1 0x4 MSTORE PUSH1 0x24 PUSH1 0x0 REVERT JUMPDEST PUSH1 0x0 PUSH2 0x35C DUP3 PUSH2 0x20C JUMP JUMPDEST SWAP2 POP PUSH2 0x367 DUP4 PUSH2 0x20C JUMP JUMPDEST SWAP3 POP DUP3 PUSH2 0x377 JUMPI PUSH2 0x376 PUSH2 0x322 JUMP JUMPDEST JUMPDEST DUP3 DUP3 MOD SWAP1 POP SWAP3 SWAP2 POP POP JUMP JUMPDEST PUSH1 0x0 PUSH2 0x38D DUP3 PUSH2 0x20C JUMP JUMPDEST SWAP2 POP PUSH2 0x398 DUP4 PUSH2 0x20C JUMP JUMPDEST SWAP3 POP DUP3 DUP3 ADD SWAP1 POP DUP1 DUP3 GT ISZERO PUSH2 0x3B0 JUMPI PUSH2 0x3AF PUSH2 0x2B1 JUMP JUMPDEST JUMPDEST SWAP3 SWAP2 POP POP JUMP JUMPDEST PUSH1 0x0 PUSH2 0x3C1 DUP3 PUSH2 0x20C JUMP JUMPDEST SWAP2 POP PUSH2 0x3CC DUP4 PUSH2 0x20C JUMP JUMPDEST SWAP3 POP DUP3 PUSH2 0x3DC JUMPI PUSH2 0x3DB PUSH2 0x322 JUMP JUMPDEST JUMPDEST DUP3 DUP3 DIV SWAP1 POP SWAP3 SWAP2 POP POP JUMP JUMPDEST PUSH1 0x0 PUSH2 0x3F2 DUP3 PUSH2 0x20C JUMP JUMPDEST SWAP2 POP PUSH2 0x3FD DUP4 PUSH2 0x20C JUMP JUMPDEST SWAP3 POP DUP3 DUP3 SUB SWAP1 POP DUP2 DUP2 GT ISZERO PUSH2 0x415 JUMPI PUSH2 0x414 PUSH2 0x2B1 JUMP JUMPDEST JUMPDEST SWAP3 SWAP2 POP POP JUMP INVALID LOG2 PUSH5 0x6970667358 0x22 SLT KECCAK256 BLOCKHASH 0xEA 0xDF PUSH10 0xD436740A5EBDC2389A70 0xE5 PUSH26 0x2A6880E5C3F58DC2526AC08B52587D7664736F6C634300081100 CALLER "
		},
		"gasEstimates": {
			"creation": {
				"codeDepositCost": "221000",
				"executionCost": "263",
				"totalCost": "221263"
			},
			"external": {
				"Add()": "infinite",
				"Divide()": "infinite",
				"EnterNumbers(uint256,uint256)": "infinite",
				"Multiply()": "infinite",
				"Remainder()": "infinite",
				"Subtract()": "infinite",
				"n1()": "2430",
				"n2()": "2474"
			}
		},
		"methodIdentifiers": {
			"Add()": "67e06858",
			"Divide()": "72b38ffc",
			"EnterNumbers(uint256,uint256)": "4ef6379c",
			"Multiply()": "4799e6d8",
			"Remainder()": "58a18a08",
			"Subtract()": "a4f7a630",
			"n1()": "36fe1f25",
			"n2()": "4aaa831d"
		}
	},
	"abi": [
		{
			"inputs": [],
			"name": "Add",
			"outputs": [
				{
					"internalType": "uint256",
					"name": "",
					"type": "uint256"
				}
			],
			"stateMutability": "view",
			"type": "function"
		},
		{
			"inputs": [],
			"name": "Divide",
			"outputs": [
				{
					"internalType": "uint256",
					"name": "",
					"type": "uint256"
				}
			],
			"stateMutability": "view",
			"type": "function"
		},
		{
			"inputs": [
				{
					"internalType": "uint256",
					"name": "a",
					"type": "uint256"
				},
				{
					"internalType": "uint256",
					"name": "b",
					"type": "uint256"
				}
			],
			"name": "EnterNumbers",
			"outputs": [],
			"stateMutability": "nonpayable",
			"type": "function"
		},
		{
			"inputs": [],
			"name": "Multiply",
			"outputs": [
				{
					"internalType": "uint256",
					"name": "",
					"type": "uint256"
				}
			],
			"stateMutability": "view",
			"type": "function"
		},
		{
			"inputs": [],
			"name": "Remainder",
			"outputs": [
				{
					"internalType": "uint256",
					"name": "",
					"type": "uint256"
				}
			],
			"stateMutability": "view",
			"type": "function"
		},
		{
			"inputs": [],
			"name": "Subtract",
			"outputs": [
				{
					"internalType": "uint256",
					"name": "",
					"type": "uint256"
				}
			],
			"stateMutability": "view",
			"type": "function"
		},
		{
			"inputs": [],
			"name": "n1",
			"outputs": [
				{
					"internalType": "uint256",
					"name": "",
					"type": "uint256"
				}
			],
			"stateMutability": "view",
			"type": "function"
		},
		{
			"inputs": [],
			"name": "n2",
			"outputs": [
				{
					"internalType": "uint256",
					"name": "",
					"type": "uint256"
				}
			],
			"stateMutability": "view",
			"type": "function"
		}
	]
}